:020000020000FC
:0200000033C00B
:0200040042C0F8
:100068000FEF0DBF08E00EBF0DE7B02E00EFC02E5A
:10007800332744275527662728D031D035D00000AC
:10008800FECF002706BD00C006B50B11FDCF00C08E
:100098004A99189500C04A9BFECF00C013B129B1F8
:1000A8001C2116951695169516952C21120F310FB1
:1000B800461F5395543009F0F1CF469537958894EB
:1000C80046953795889438B91895002704B90AB920
:1000D80004E00BB90FEF07B9002708B9089500E04D
:1000E80004BD03E005BD089502E00093690001E046
:0600F8000DBB7894089591
:00000001FF
