:020000020000FC
:100000000FEF0DBF08E00EBF08E0C02E22273327F8
:100010004427552733D039D042D000917A0000646C
:1000200000937A0000C000917A0006FDFCCF109189
:100030007900310F451F23952C11EFCF22274695CC
:100040003795889446953795889446953795889442
:10005000353118F43F3030F40AC028D00FEB07BD1B
:1000600005B90AC023D000E807BD05B905C024D0F2
:10007000002707BD05B900C03327CFCF0FEF04B964
:10008000002705B900E40AB9089501E600937C0051
:1000900005E800937A00002700937B00089502E0B2
:1000A00004BD03E005BD002707BD089500912400AD
:1000B00000680093240008950091240000600093DC
:0400C000240008957B
:00000001FF
