:020000020000FC
:0200000002C03C
:1000040033C00FEF0DBF08E00EBF0027A02E44271A
:100014000FEF04B9002705B900E00AB904E00BB9F1
:1000240000E004BD02E005BD00E00093800003E0B1
:100034000093810003EA0093B00006E00093B1004E
:1000440000E80093B40002E00093690001E00DBBF6
:10005400789401E600937C0005EE00937A0000E0BA
:1000640000937B000000FECF002706BD00C006B54C
:100074000D37E9F74A99189500C018E719E716955E
:10008400169500C0A394A092B400A5B8A412AA1017
:1000940018950027009385000093840000C0009108
:0C00A400840000918500011769F3F9CF7A
:00000001FF
