:020000020000FC
:100000000FEF0DBF08E00EBF3FD034D042D0222703
:100010000CE9C02E04EFE02E02E0F02E66275527F3
:100020007727002706BD00C006B5C012FDCF00C06F
:1000300000917A00006400937A0000917A0006FD36
:10004000FCCF10917900510F671FB394203209F053
:10005000EFCF00276695579588940395053009F0F2
:10006000F9CF222755275D93BF117713AE11771370
:1000700010D0D7CF03E600937C0005E800937A0008
:10008000002700937B00089500E004BD05E005BD56
:080090000895A0E0B1E008951D
:00000001FF
