:020000020000FC
:0200000002C03C
:1000040033C00FEF0DBF08E00EBF09E9A02E44274F
:1000140000270AB908E004B904E00BB9002705B9C0
:1000240000E004BD03E005BD00E00093800005E0AE
:100034000093810003E80093B00006E00093B10050
:1000440000E80093B30002E00093690001E00DBBF7
:10005400789400E600937C0000EE00937A0000E0C0
:1000640000937B000000FECF002706BD00C006B54C
:100074000D37E9F74A99189500C02091780020912E
:1000840079002093B30013D000C000918400009144
:1000940085000A11FACF0BD000C0009184000091B2
:1000A40085000A11FACF22272093B3001895002760
:0A00B4000093850000938400089576
:00000001FF
