:020000020000FC
:100000000FEF0DBF08E00EBFA0E0B1E0C0E0D1E00F
:100010000AEFC02E08E0D02E222733274427552789
:10002000662731D03AD02D93AD11FDCFA0E000C0AE
:1000300006B50C11FDCF00C019B11D93A21302C06B
:10004000A0E000C00991300F421F53955D11FACF17
:1000500000C04695379588946395633009F0F9CFD1
:10006000032F0F7005B9032F007F0695069506959F
:10007000069508B900C05527662733274427C0E0F6
:10008000002706BDD5CF00270AB909B90FEF04B97B
:1000900007B9002705B908B90895002704BD03E092
:0400A00005BD0895FD
:00000001FF
